:020000040800F2
:1000000000000220AD1800082D1300082F1300086F
:1000100031130008331300083513000800000000F6
:10002000000000000000000000000000371300087E
:1000300039130008000000003B1300083D130008BE
:10004000FD180008FD180008FD180008FD1800083C
:10005000FD180008FD180008FD180008FD1800082C
:10006000FD180008FD180008FD180008FD1800081C
:10007000FD180008FD180008FD180008FD1800080C
:10008000FD180008FD180008FD180008FD180008FC
:10009000FD180008FD180008FD180008FD180008EC
:1000A000FD180008FD180008FD180008FD180008DC
:1000B000FD180008FD180008FD180008FD180008CC
:1000C000FD180008FD180008FD180008FD180008BC
:1000D000FD180008FD180008FD180008FD180008AC
:1000E000FD180008FD180008FD180008FD1800089C
:1000F000FD180008FD180008FD180008FD1800088C
:10010000FD180008FD180008FD180008FD1800087B
:10011000FD180008FD180008FD180008FD1800086B
:10012000FD180008FD180008FD180008FD1800085B
:10013000FD1800080000000000000000FD18000885
:10014000FD180008FD180008FD180008FD1800083B
:10015000FD180008FD180008FD180008FD1800082B
:10016000FD180008FD180008FD180008FD1800081B
:10017000FD180008FD180008000000000000000045
:08018000FD180008FD1800083D
:1001880010B5054C237833B9044B13B10448AFF3C9
:1001980000800123237010BD0C0000200000000027
:1001A8005819000808B5034B1BB103490348AFF3BE
:1001B800008008BD00000000100000205819000849
:1001C80053B94AB9002908BF00281CBF4FF0FF31B6
:1001D8004FF0FF3000F072B9ADF1080C6DE904CEB4
:1001E80000F006F8DDF804E0DDE9022304B070470A
:1001F8002DE9F047089E04468846002B4BD18A42D9
:10020800154667D9B2FA82F24AB1C2F1200701FA5B
:1002180002F320FA07F7954047EA030894404FEAAB
:10022800154E230CB8FBFEF71FFA85FC0EFB17884A
:1002380043EA084307FB0CF1994209D9EB1807F187
:10024800FF3080F01B81994240F21881023F2B4415
:100258005B1AA4B2B3FBFEF00EFB103344EA03446E
:1002680000FB0CFCA44509D92C1900F1FF3380F0E0
:100278000781A44540F2048102382C4440EA074033
:10028800A4EB0C0400271EB1D4400023C6E90043A8
:100298003946BDE8F0878B4209D9002E00F0EB8083
:1002A8000027C6E9000138463946BDE8F087B3FAA9
:1002B80083F7002F47D18B4202D3824200F2FA80A3
:1002C800841A61EB030301209846002EE0D0C6E9AA
:1002D8000048DDE702B9FFDEB2FA82F2002A40F0F8
:1002E8008F80491B4FEA154E1FFA85F80127B1FB8D
:1002F800FEFC230C0EFB1C1143EA014308FB0CF126
:10030800994207D9EB180CF1FF3002D2994200F25A
:10031800CD808446591AA3B2B1FBFEF00EFB10142F
:1003280043EA044408FB00F8A04507D92C1900F15A
:10033800FF3302D2A04500F2B6801846A4EB0804A9
:1003480040EA0C409FE7C7F1200CBB4022FA0CFEA4
:100358004EEA030E01FA07F420FA0CF521FA0CF321
:100368004FEA1E482543B3FBF8F92C0C08FB193358
:100378001FFA8EFA44EA034309FB0AF49C4202FA84
:1003880007F200FA07F10BD91EEB030309F1FF305E
:1003980080F087809C4240F28480A9F1020973446E
:1003A8001B1BADB2B3FBF8F008FB103345EA03445E
:1003B80000FB0AFAA24508D91EEB040400F1FF333A
:1003C8006BD2A24569D90238744440EA0940A0FBBF
:1003D8000289A4EB0A044C45C2464B4654D351D07B
:1003E800002E69D0B1EB0A0564EB030404FA0CFC97
:1003F800FD40FC404CEA0505C6E90054002747E7E4
:10040800C2F1200320FA03F7954001FA02F021FA1D
:1004180003F34FEA154E3843010CB3FBFEF71FFAFE
:1004280085F80EFB173341EA034107FB08F38B42BB
:1004380004FA02F407D9691807F1FF3C2FD28B425E
:100448002DD9023F2944CB1A81B2B3FBFEF00EFB33
:10045800103341EA034100FB08F38B4207D96918BE
:1004680000F1FF3C17D28B4215D902382944C91A2A
:1004780040EA07473BE73746304609E70746E7E6DD
:100488001846FBE64145ABD2B8EB020A69EB0E020F
:1004980001381346A4E76046E9E7184695E767463A
:1004A800D1E781467CE702382C4447E7ACF1020CDF
:1004B8002B442FE7384608E73746E9E6704700BF80
:1004C80030B4036A23F001030362056A4268846951
:1004D80024F073040B681C4325F002058B682B433A
:1004E800104DA84203D005F58065A84205D123F038
:1004F8000803CD682B4323F004030A4DA84203D018
:1005080005F58065A84205D122F440724D6915436E
:100518008A692A43426084614A684263036230BC44
:10052800704700BF0000014030B4036A23F48073B1
:100538000362036A4268C46924F073040D682C439B
:1005480023F400738D6843EA0523124DA84203D0B3
:1005580005F58065A84206D123F40063CD6843EA17
:10056800052323F480630B4DA84203D005F580656D
:10057800A84207D122F440524D6942EA05128D691A
:1005880042EA05124260C4614A68C263036230BC31
:10059800704700BF0000014030B4036A23F4805361
:1005A8000362036A4468C26922F4E6420D6842EABB
:1005B800052223F400538D6843EA0533094DA84208
:1005C80003D005F58065A84204D124F480444D6920
:1005D80044EA85144460C2614A680264036230BC1C
:1005E800704700BF000001400368304A904212D0B3
:1005F800B0F1804F0FD0A2F57C4290420BD002F5AB
:100608008062904207D002F58062904203D002F5E2
:100618007842904203D123F070034A681343234A77
:1006280090422AD0B0F1804F27D0A2F57C42904268
:1006380023D002F5806290421FD002F5806290427A
:100648001BD002F57842904217D002F570529042C2
:1006580013D002F5806290420FD002F5806290427A
:100668000BD0A2F59832904207D002F580629042F2
:1006780003D002F58062904203D123F44073CA6824
:10068800134323F080034A69134303608B68C362F2
:100698000B688362054B984203D003F58063984248
:1006A80001D10B69036301234361704700000140D6
:1006B800A8B110B5044690F83D305BB1022384F828
:1006C8003D30211D2068FFF78FFF012384F83D305E
:1006D800002010BD80F83C3000F086FEEEE70120D7
:1006E8007047000030B4036A23F010030362036A02
:1006F8004468826922F4E6420D6842EA052223F042
:1007080020038D6843EA0513114DA84203D005F56F
:100718008065A84206D123F08003CD6843EA05131B
:1007280023F040030A4DA84203D005F58065A8428E
:1007380007D124F440644D6944EA85048D6944EA8C
:100748008504446082614A688263036230BC7047F2
:100758000000014038B590F83C30012B66D00D46BA
:100768000446012380F83C30022380F83D300C2AEF
:100778001AD8DFE802F007191919201919193419BC
:10078800191947000068FFF79BFE2268936943F038
:10079800080393612268936923F004039361226834
:1007A800936929690B439361012384F83D30002044
:1007B80084F83C0038BD0068FFF794FF226893690D
:1007C80043F4006393612268936923F4806393611F
:1007D80022689369296943EA01239361E4E7006881
:1007E800FFF7A2FE2268D36943F00803D3612268A9
:1007F800D36923F00403D3612268D36929690B43C1
:10080800D361D1E70068FFF7C7FE2268D36943F4D4
:100818000063D3612268D36923F48063D3612268BB
:10082800D369296943EA0123D361BDE70220C1E7FF
:1008380090F83C30012B1CD070B4012680F83C6045
:10084800022380F83D3002685568936825F07005EA
:100858000C682C4323F080054B682B4354600268D6
:10086800936080F83D60002380F83C30184670BCE7
:100878007047022070470000002800F0BB8170B567
:1008880082B00446036813F0010F3BD0A74B9B6866
:1008980003F00C03042B2CD0A44B9B6803F00C032F
:1008A800082B21D06368B3F5803F4FD0B3F5A02F54
:1008B80052D09E4B1A6822F480321A601A6822F4C9
:1008C80080221A606368002B50D000F061FC054656
:1008D800964B1B6813F4003F14D100F059FC401BE1
:1008E8006428F5D903208AE1904B5B6813F4800FE4
:1008F800D8D08E4B1B6813F4003F03D06368002BDD
:1009080000F07A81236813F0020F55D0874B9B685B
:1009180013F00C0F3ED0854B9B6803F00C03082B9B
:1009280033D0E368002B68D0814B01221A6000F0B5
:100938002FFC05467D4B1B6813F0020F54D100F0C5
:1009480027FC401B0228F5D9032058E1774A136891
:1009580043F480331360B5E7744B1A6842F480227D
:100968001A601A6842F480321A60ABE700F010FC93
:1009780005466E4B1B6813F4003FC3D000F008FC1B
:10098800401B6428F5D9032039E1684B5B6813F4F0
:10099800800FC6D1654B1B6813F0020F04D0E368C3
:1009A800012B01D001202AE1604A136823F0F803E3
:1009B800216943EAC1031360236813F0080F40D08C
:1009C800636963B35B4B01221A6000F0E1FB0546E3
:1009D800564B5B6F13F0020F33D100F0D9FB401B6D
:1009E8000228F5D903200AE1504A136823F0F803D6
:1009F800216943EAC1031360DEE74D4B00221A6008
:100A080000F0C6FB0546494B1B6813F0020FD3D014
:100A180000F0BEFB401B0228F5D90320EFE0454B50
:100A280000221A6000F0B4FB0546404B5B6F13F0E0
:100A3800020F06D000F0ACFB401B0228F5D90320BA
:100A4800DDE0236813F0040F79D0384B1B6C13F0EA
:100A5800805F33D100230193344B1A6C42F08052EB
:100A68001A641B6C03F080530193019B0125324BE0
:100A78001B6813F4807F23D0A368012B34D0052B87
:100A880038D02A4B1A6F22F001021A671A6F22F027
:100A980004021A67A368002B36D000F079FB0646DB
:100AA800224B1B6F13F0020F48D100F071FB801B23
:100AB80041F288339842F3D90320A0E00025D6E715
:100AC8001D4A136843F48073136000F061FB064607
:100AD800194B1B6813F4807FCED100F059FB801BA3
:100AE8000228F5D903208AE0104A136F43F0010366
:100AF8001367CFE70D4B1A6F42F004021A671A6F9B
:100B080042F001021A67C5E700F042FB0646074BB0
:100B18001B6F13F0020F11D000F03AFB801B41F25B
:100B280088339842F3D9032069E000BF00380240B7
:100B380000004742800E474200700040E5B9A369B3
:100B4800002B5BD0304A926802F00C02082A58D079
:100B5800022B17D02D4B00221A6000F019FB044617
:100B6800294B1B6813F0007F42D000F011FB001BDB
:100B78000228F5D9032042E0234A136C23F080535E
:100B88001364DCE7214B00221A6000F001FB0546E4
:100B98001D4B1B6813F0007F06D000F0F9FA401BCC
:100BA8000228F5D903202AE0E369226A1343626A1E
:100BB80043EA8213A26A5208013A43EA0243E26A0C
:100BC80043EA0263104A5360104B01221A6000F096
:100BD800DFFA04460C4B1B6813F0007F06D100F0C7
:100BE800D7FA001B0228F5D9032008E0002006E008
:100BF800002004E001207047012000E0002002B03E
:100C080070BD0120FBE700BF00380240600047428A
:100C1800324B9B6803F00C03042B5CD0082B01D0EB
:100C28002F4870472DE9F04B2C4B5A6802F03F02D1
:100C38005B6813F4800F2BD0284B5B68C3F38813D1
:100C48001E4600275C010025E41A65EB0705A9018B
:100C580041EA9461A001001B61EB0501CB0043EA66
:100C68005073C400A01943EB07014B0243EAD05369
:100C78004402204619460023FFF7A2FA174B5B6887
:100C8800C3F3014301335B00B0FBF3F0BDE8F08B25
:100C9800124B5B68C3F388131E4600275C010025CE
:100CA800E41A65EB0705A90141EA9461A001001B5C
:100CB80061EB0501CB0043EA5073C400A01943EB74
:100CC80007018B0243EA9053840220461946002309
:100CD800FFF776FAD2E70348704700BF00380240B2
:100CE8000024F40000127A00002800F09D8070B5FE
:100CF80004464F4B1B6803F00F038B4209D2CBB25B
:100D08004B4A1370136803F00F038B4201D0012084
:100D180070BD236813F0020F17D013F0040F04D02E
:100D2800444A936843F4E0539360236813F0080F30
:100D380004D0404A936843F4604393603D4A936803
:100D480023F0F003A068034393600D46236813F073
:100D5800010F32D06368012B21D09A1E012A25D9B0
:100D6800344A126812F0020F60D032498A6822F0C1
:100D7800030213438B6000F00BFA06462D4B9B6869
:100D880003F00C036268B3EB820F16D000F000FA90
:100D9800801B41F288339842F0D90320B8E7254AEE
:100DA800126812F4003FE0D10120B1E7214A12682D
:100DB80012F0007FD9D10120AAE71D4B1B6803F070
:100DC8000F03AB4209D9EAB2194B1A701B6803F03A
:100DD8000F03AB4201D001209AE7236813F0040FF8
:100DE80006D0144A936823F4E053E1680B439360F8
:100DF800236813F0080F07D00E4A936823F4604362
:100E0800216943EAC1039360FFF702FF094B9B681E
:100E1800C3F30313084AD35CD840084B186000207A
:100E280000F06AF9002073E70120704701206FE79E
:100E3800003C024000380240D41900080800002095
:100E4800014B1868704700BF0800002008B5FFF77D
:100E5800F7FF044B9B68C3F38223034AD35CD84053
:100E680008BD00BF00380240E419000800230F2B1A
:100E780000F2D780F0B482B039E0072200E0002207
:100E8800B2403A430234674E46F82420664A146852
:100E9800EA4302EA04064F6817F4803F01D045EAA6
:100EA8000406614C2660646802EA04064F6817F479
:100EB800003F01D045EA04065B4C6660A46802EA7C
:100EC80004064F6817F4801F01D045EA0406564C03
:100ED800A660E46822404E6816F4001F01D045EA77
:100EE8000402514CE26001330F2B00F2978001227B
:100EF8009A400C6804EA0205AA42F4D14C68022C14
:100F080001D0122C10D1DE08083650F826C003F0A4
:100F18000704A7000F24BC402CEA040C0C69BC4051
:100F280044EA0C0440F8264004685F000326BE40EB
:100F3800F64306EA040C4C6804F00304BC4044EA97
:100F48000C0404604C6804F1FF3CBCF1010F03D9A8
:100F5800112C01D0122C10D1846806EA040CCC683C
:100F6800BC4044EA0C048460446824EA02024C68E9
:100F7800C4F300149C4014434460C26816408A6855
:100F8800BA403243C2604A6812F0805FABD0002298
:100F98000192264A546C44F480445464526C02F41E
:100FA80080420192019A9C08A61C1E4A52F826709B
:100FB80003F0030296000F22B24027EA02071C4AF8
:100FC80090423FF45CAF02F5806290421AD002F57D
:100FD8008062904218D002F58062904216D002F5E5
:100FE8008062904214D002F58062904212D002F5DD
:100FF8008062904210D002F5806290423FF43DAF8B
:1010080008223DE701223BE7022239E7032237E7BE
:10101800042235E7052233E7062231E702B0F0BCA7
:101028007047704700380140003C014000380240DA
:101038000000024012B9090481617047816170475C
:10104800074AD36823F4E0631B041B0C000200F476
:10105800E060184340F0BF6040F40030D060704753
:1010680000ED00E030B4174BDB68C3F30223C3F193
:101078000704042C28BF04241D1D062D18D9033B82
:101088004FF0FF3505FA04F421EA0401994005FA06
:1010980003F322EA0303194300280BDB0901C9B251
:1010A80000F1604000F5614080F8001330BC7047E3
:1010B8000023E5E700F00F000901C9B2024B1954FB
:1010C800F4E700BF00ED00E014ED00E00138B0F1F6
:1010D800807F0AD2064B5860064AF02182F8231016
:1010E8000020986007221A6070470120704700BFEF
:1010F80010E000E000ED00E010B504460E4B187853
:101108004FF47A73B3FBF0F30C4A1068B0FBF3F0BA
:10111800FFF7DCFF68B90F2C01D901200AE0002293
:1011280021464FF0FF30FFF79DFF054B1C60002064
:1011380000E0012010BD00BF0000002008000020D2
:101148000400002008B50B4B1A6842F400721A60BC
:101158001A6842F480621A601A6842F480721A604F
:101168000320FFF76DFF0020FFF7C6FF00F0E6F849
:10117800002008BD003C0240034A1168034B1B785D
:101188000B441360704700BF2800002000000020B7
:10119800014B1868704700BF2800002030B58BB09D
:1011A80000240894099401940294039404940594E7
:1011B800069407940F4D104B2B606C60AC60EC608C
:1011C8002C61AC612846FFF773FA0894099408A9C2
:1011D8002846FFF72DFB602301930294039405949E
:1011E8000C2201A92846FFF7B5FA284600F014F9A1
:1011F8000BB030BD800000200004004008B509484D
:10120800094B0360094B436000238360C3604FF4BC
:101218008042026143618361C361036200F026F981
:1012280008BD00BF2C00002000540040A08601002B
:1012380010B586B000F0EAF900F0C8FA00210846B7
:1012480000F05EFA01AC0A4B0FCB84E80F00204691
:1012580000F0B2FA0121002000F052FA054B0FCB42
:1012680084E80F00204600F0A7FA06B010BD00BFC2
:10127800701900088019000830B595B03022002197
:1012880008A800F05DFB00240394049405940694D8
:10129800079401941B4B1A6C42F080521A641B6C21
:1012A80003F080530193019B0294174B1A6842F490
:1012B80080421A601B6803F480430293029B012357
:1012C80008934FF48033099302250E954FF4800359
:1012D8000F9304231093A82211921295139308A830
:1012E800FFF7CAFA0F230393049505944FF4A0530C
:1012F80006934FF480530793052103A8FFF7F4FCE6
:1013080015B030BD003802400070004008B5FFF746
:1013180019FFFFF7B1FFFFF741FFFFF76FFFFFF777
:1013280087FFFEE77047FEE7FEE7FEE7FEE7704748
:101338007047704708B5FFF71FFF08BD82B000214E
:1013480000910B4B5A6C42F480425A645A6C02F476
:1013580080420092009A01911A6C42F080521A64FD
:101368001B6C03F080530193019B02B0704700BFD0
:101378000038024030B589B00023039304930593E5
:10138800069307930268154B9A4201D009B030BD05
:1013980000250195124C236B43F002032363236B52
:1013A80003F002030193019BC023039312230493C8
:1013B80001230593032306930423079303A90948EC
:1013C800FFF754FD0295236C43F400132364236C48
:1013D80003F400130293029BD8E700BF00540040B7
:1013E80000380240000402400268094B9A4200D0CB
:1013F800704782B000230193064B1A6C42F0020238
:101408001A641B6C03F002030193019B02B070473E
:10141800000400400038024000B587B00023019363
:10142800029303930493059302680D4B9A4202D0EA
:1014380007B05DF804FB002300930A4B1A6B42F0D7
:1014480002021A631B6B03F002030093009B022342
:1014580001930293059301A90348FFF707FDE7E706
:10146800000400400038024000040240002800F058
:10147800BE80F8B5044690F83D30002B6BD024238D
:1014880084F83D302268136823F001031360FFF7E6
:10149800DDFC6268584B9A4262D8584B98428CBF20
:1014A80000230123002B40F0A480554BA3FB00230D
:1014B8009B0C21684A6822F03F021A434A6025685B
:1014C8002A6A22F03F0266684B498E424ED80133A1
:1014D80013432B622568E96921F44F4121F0FF018C
:1014E8006368454A93424BD801385B00B0FBF3F37D
:1014F8000133C3F30B03042B38BF04230B43EB6105
:1015080021680B6823F0C003E269206A0243134391
:101518000B6021688B6823F4034323F0FF032269DF
:10152800E068024313438B602168CB6823F0FF0314
:101538006269A06902431343CB602268136843F0D1
:101548000103136000202064202384F83D302063C9
:1015580084F83E00F8BD80F83C30FFF70BFF8EE7BB
:10156800284B98428CBF002301239BE74FF49671C8
:1015780001FB03F32449A1FB03139B090133A7E7EC
:10158800A268BAB9461E03EB4307B6FBF7F6013665
:10159800C6F30B06B6FA86F6760936BBC2B9013829
:1015A80003EB4303B0FBF3F30133C3F30B0242F441
:1015B8000043A3E7461E03EB830707EB8707B6FB49
:1015C800F7F60136C6F30B06B6FA86F67609E4E7AF
:1015D800013803EB830303EB8303B0FBF3F201321F
:1015E800C2F30B0242F4404388E7012386E7012057
:1015F80070470120AEE700BFA08601007F841E006F
:1016080083DE1B43FF083D00D34D621000B587B051
:10161800002300930C4A116B41F002011163126B15
:1016280002F002020092009A0393049305934FF488
:10163800704301930123029301A90448FFF716FCA4
:1016480007B05DF804FB00BF003802400004024008
:1016580010B5074C01224FF400612046FFF7EAFC61
:1016680000224FF400612046FFF7E4FC10BD00BFE4
:101678000004024010B504460009FFF7E9FF04F032
:101688000F00FFF7E5FF10BD70B504460C4E0022B1
:101698004FF480613046FFF7CDFC631E094AD05CE9
:1016A800094D2870FFF7E6FF01224FF480613046AC
:1016B800FFF7C0FC00232B70044B1C7070BD00BFEB
:1016C8000004024090190008C0000020D800002043
:1016D80010B50A4C00224FF480612046FFF7AAFC9F
:1016E8000120FFF7C7FF01224FF480612046FFF772
:1016F800A1FC0120FFF7C8FF10BD00BF0004024095
:1017080070B506460C460C4D00224FF48061284601
:10171800FFF790FC094B185D3044C0B2084B1870B5
:10172800FFF7A8FF01224FF480612846FFF782FCEB
:101738000134044B1C7070BD00040240901900086D
:10174800C0000020D800002010B5044601224FF444
:1017580080611648FFF76EFCBF2C14D9C03C144BAF
:10176800185DFFF787FF134A13780133DBB2137054
:10177800282B12D00BD93C2B13D0502B0CD1012085
:10178800FFF782FF08E02046FFF774FFEBE7142B12
:1017980002D10220FFF778FF10BD0320FFF774FF86
:1017A800FAE70420FFF770FFF6E700BF00040240E5
:1017B80094190008C000002010B5044602E0013466
:1017C800FFF7C2FF20780028F9D110BD10B5214CD1
:1017D80000224FF400612046FFF72CFC00224FF452
:1017E80080612046FFF726FC3320FFF731FF3320C6
:1017F800FFF72EFF3320FFF72BFF2220FFF728FFEC
:101808002820FFF737FF0120FFF734FF1020FFF7EC
:1018180031FF0620FFF72EFF0C20FFF72BFF402497
:101828000DE000224FF480610A48FFF703FC2046D0
:10183800FFF720FF0020FFF787FF0134E4B25E2C9A
:10184800EFD901224FF480610248FFF7F3FBFFF75D
:101858003FFF10BD000402400F49D1F8883043F41F
:101868007003C1F888300D4B1A6842F001021A6003
:10187800002098601A6822F0847222F480321A607C
:10188800074A5A601A6822F480221A60D8604FF01A
:1018980000638B60704700BF00ED00E00038024035
:1018A80010300024DFF834D0002103E00C4B5B58E3
:1018B800435004310B480C4B42189A42F6D30B4A5A
:1018C80002E0002342F8043B094B9A42F9D3FFF7A0
:1018D800C3FF00F011F8FFF719FD70470000022060
:1018E800FC190008000000200C0000200C0000205B
:1018F800DC000020FEE7000070B50D4E0D4CA41B67
:10190800A4100025A54209D10B4E0C4C00F020F87C
:10191800A41BA4100025A54205D170BD56F825309A
:1019280098470135EEE756F8253098470135F2E734
:10193800F4190008F4190008F4190008F819000847
:1019480002440346934200D1704703F8011BF9E7AC
:10195800F8B500BFF8BC08BC9E467047F8B500BF94
:08196800F8BC08BC9E46704764
:101970004142434445464748494A4B4C4D213F006C
:101980004E4F505152535455565758595A2B2D00BB
:1019900080C090D041A042A1E045A3A4A5A64BA73A
:1019A0004D484FA8504354A9AA58E1ABACE2ADAEA4
:1019B00062AFB0B161B2B3B4E365B6B7B8B9BABBA0
:1019C000BCBD6FBE7063BF79E478E5C0C1E6C2C339
:1019D000C4C5C6C7000000000000000001020304E7
:0C19E000060708090000000001020304D3
:0819EC000CE8FF7F0100000080
:0419F400AD01000839
:0419F8008901000859
:0C19FC0001000000100000000024F400B6
:04000005080018AD2A
:00000001FF
