ARM GAS  /tmp/cchM3mgL.s 			page 1


   1              		.cpu cortex-m4
   2              		.eabi_attribute 27, 1
   3              		.eabi_attribute 28, 1
   4              		.eabi_attribute 20, 1
   5              		.eabi_attribute 21, 1
   6              		.eabi_attribute 23, 3
   7              		.eabi_attribute 24, 1
   8              		.eabi_attribute 25, 1
   9              		.eabi_attribute 26, 1
  10              		.eabi_attribute 30, 1
  11              		.eabi_attribute 34, 1
  12              		.eabi_attribute 18, 4
  13              		.file	"stm32f4xx_hal_msp.c"
  14              		.text
  15              	.Ltext0:
  16              		.cfi_sections	.debug_frame
  17              		.section	.text.HAL_MspInit,"ax",%progbits
  18              		.align	1
  19              		.global	HAL_MspInit
  20              		.syntax unified
  21              		.thumb
  22              		.thumb_func
  23              		.fpu fpv4-sp-d16
  25              	HAL_MspInit:
  26              	.LFB130:
  27              		.file 1 "Core/Src/stm32f4xx_hal_msp.c"
   1:Core/Src/stm32f4xx_hal_msp.c **** /* USER CODE BEGIN Header */
   2:Core/Src/stm32f4xx_hal_msp.c **** /**
   3:Core/Src/stm32f4xx_hal_msp.c ****   ******************************************************************************
   4:Core/Src/stm32f4xx_hal_msp.c ****   * File Name          : stm32f4xx_hal_msp.c
   5:Core/Src/stm32f4xx_hal_msp.c ****   * Description        : This file provides code for the MSP Initialization 
   6:Core/Src/stm32f4xx_hal_msp.c ****   *                      and de-Initialization codes.
   7:Core/Src/stm32f4xx_hal_msp.c ****   ******************************************************************************
   8:Core/Src/stm32f4xx_hal_msp.c ****   * @attention
   9:Core/Src/stm32f4xx_hal_msp.c ****   *
  10:Core/Src/stm32f4xx_hal_msp.c ****   * <h2><center>&copy; Copyright (c) 2020 STMicroelectronics.
  11:Core/Src/stm32f4xx_hal_msp.c ****   * All rights reserved.</center></h2>
  12:Core/Src/stm32f4xx_hal_msp.c ****   *
  13:Core/Src/stm32f4xx_hal_msp.c ****   * This software component is licensed by ST under BSD 3-Clause license,
  14:Core/Src/stm32f4xx_hal_msp.c ****   * the "License"; You may not use this file except in compliance with the
  15:Core/Src/stm32f4xx_hal_msp.c ****   * License. You may obtain a copy of the License at:
  16:Core/Src/stm32f4xx_hal_msp.c ****   *                        opensource.org/licenses/BSD-3-Clause
  17:Core/Src/stm32f4xx_hal_msp.c ****   *
  18:Core/Src/stm32f4xx_hal_msp.c ****   ******************************************************************************
  19:Core/Src/stm32f4xx_hal_msp.c ****   */
  20:Core/Src/stm32f4xx_hal_msp.c **** /* USER CODE END Header */
  21:Core/Src/stm32f4xx_hal_msp.c **** 
  22:Core/Src/stm32f4xx_hal_msp.c **** /* Includes ------------------------------------------------------------------*/
  23:Core/Src/stm32f4xx_hal_msp.c **** #include "main.h"
  24:Core/Src/stm32f4xx_hal_msp.c **** /* USER CODE BEGIN Includes */
  25:Core/Src/stm32f4xx_hal_msp.c **** 
  26:Core/Src/stm32f4xx_hal_msp.c **** /* USER CODE END Includes */
  27:Core/Src/stm32f4xx_hal_msp.c **** 
  28:Core/Src/stm32f4xx_hal_msp.c **** /* Private typedef -----------------------------------------------------------*/
  29:Core/Src/stm32f4xx_hal_msp.c **** /* USER CODE BEGIN TD */
  30:Core/Src/stm32f4xx_hal_msp.c **** 
  31:Core/Src/stm32f4xx_hal_msp.c **** /* USER CODE END TD */
ARM GAS  /tmp/cchM3mgL.s 			page 2


  32:Core/Src/stm32f4xx_hal_msp.c **** 
  33:Core/Src/stm32f4xx_hal_msp.c **** /* Private define ------------------------------------------------------------*/
  34:Core/Src/stm32f4xx_hal_msp.c **** /* USER CODE BEGIN Define */
  35:Core/Src/stm32f4xx_hal_msp.c ****  
  36:Core/Src/stm32f4xx_hal_msp.c **** /* USER CODE END Define */
  37:Core/Src/stm32f4xx_hal_msp.c **** 
  38:Core/Src/stm32f4xx_hal_msp.c **** /* Private macro -------------------------------------------------------------*/
  39:Core/Src/stm32f4xx_hal_msp.c **** /* USER CODE BEGIN Macro */
  40:Core/Src/stm32f4xx_hal_msp.c **** 
  41:Core/Src/stm32f4xx_hal_msp.c **** /* USER CODE END Macro */
  42:Core/Src/stm32f4xx_hal_msp.c **** 
  43:Core/Src/stm32f4xx_hal_msp.c **** /* Private variables ---------------------------------------------------------*/
  44:Core/Src/stm32f4xx_hal_msp.c **** /* USER CODE BEGIN PV */
  45:Core/Src/stm32f4xx_hal_msp.c **** 
  46:Core/Src/stm32f4xx_hal_msp.c **** /* USER CODE END PV */
  47:Core/Src/stm32f4xx_hal_msp.c **** 
  48:Core/Src/stm32f4xx_hal_msp.c **** /* Private function prototypes -----------------------------------------------*/
  49:Core/Src/stm32f4xx_hal_msp.c **** /* USER CODE BEGIN PFP */
  50:Core/Src/stm32f4xx_hal_msp.c **** 
  51:Core/Src/stm32f4xx_hal_msp.c **** /* USER CODE END PFP */
  52:Core/Src/stm32f4xx_hal_msp.c **** 
  53:Core/Src/stm32f4xx_hal_msp.c **** /* External functions --------------------------------------------------------*/
  54:Core/Src/stm32f4xx_hal_msp.c **** /* USER CODE BEGIN ExternalFunctions */
  55:Core/Src/stm32f4xx_hal_msp.c **** 
  56:Core/Src/stm32f4xx_hal_msp.c **** /* USER CODE END ExternalFunctions */
  57:Core/Src/stm32f4xx_hal_msp.c **** 
  58:Core/Src/stm32f4xx_hal_msp.c **** /* USER CODE BEGIN 0 */
  59:Core/Src/stm32f4xx_hal_msp.c **** 
  60:Core/Src/stm32f4xx_hal_msp.c **** /* USER CODE END 0 */
  61:Core/Src/stm32f4xx_hal_msp.c ****                         
  62:Core/Src/stm32f4xx_hal_msp.c **** void HAL_TIM_MspPostInit(TIM_HandleTypeDef *htim);
  63:Core/Src/stm32f4xx_hal_msp.c ****                     /**
  64:Core/Src/stm32f4xx_hal_msp.c ****   * Initializes the Global MSP.
  65:Core/Src/stm32f4xx_hal_msp.c ****   */
  66:Core/Src/stm32f4xx_hal_msp.c **** void HAL_MspInit(void)
  67:Core/Src/stm32f4xx_hal_msp.c **** {
  28              		.loc 1 67 0
  29              		.cfi_startproc
  30              		@ args = 0, pretend = 0, frame = 8
  31              		@ frame_needed = 0, uses_anonymous_args = 0
  32              		@ link register save eliminated.
  33 0000 82B0     		sub	sp, sp, #8
  34              	.LCFI0:
  35              		.cfi_def_cfa_offset 8
  36              	.LBB2:
  68:Core/Src/stm32f4xx_hal_msp.c ****   /* USER CODE BEGIN MspInit 0 */
  69:Core/Src/stm32f4xx_hal_msp.c **** 
  70:Core/Src/stm32f4xx_hal_msp.c ****   /* USER CODE END MspInit 0 */
  71:Core/Src/stm32f4xx_hal_msp.c **** 
  72:Core/Src/stm32f4xx_hal_msp.c ****   __HAL_RCC_SYSCFG_CLK_ENABLE();
  37              		.loc 1 72 0
  38 0002 0021     		movs	r1, #0
  39 0004 0091     		str	r1, [sp]
  40 0006 0B4B     		ldr	r3, .L3
  41 0008 5A6C     		ldr	r2, [r3, #68]
  42 000a 42F48042 		orr	r2, r2, #16384
  43 000e 5A64     		str	r2, [r3, #68]
ARM GAS  /tmp/cchM3mgL.s 			page 3


  44 0010 5A6C     		ldr	r2, [r3, #68]
  45 0012 02F48042 		and	r2, r2, #16384
  46 0016 0092     		str	r2, [sp]
  47 0018 009A     		ldr	r2, [sp]
  48              	.LBE2:
  49              	.LBB3:
  73:Core/Src/stm32f4xx_hal_msp.c ****   __HAL_RCC_PWR_CLK_ENABLE();
  50              		.loc 1 73 0
  51 001a 0191     		str	r1, [sp, #4]
  52 001c 1A6C     		ldr	r2, [r3, #64]
  53 001e 42F08052 		orr	r2, r2, #268435456
  54 0022 1A64     		str	r2, [r3, #64]
  55 0024 1B6C     		ldr	r3, [r3, #64]
  56 0026 03F08053 		and	r3, r3, #268435456
  57 002a 0193     		str	r3, [sp, #4]
  58 002c 019B     		ldr	r3, [sp, #4]
  59              	.LBE3:
  74:Core/Src/stm32f4xx_hal_msp.c **** 
  75:Core/Src/stm32f4xx_hal_msp.c ****   /* System interrupt init*/
  76:Core/Src/stm32f4xx_hal_msp.c **** 
  77:Core/Src/stm32f4xx_hal_msp.c ****   /* USER CODE BEGIN MspInit 1 */
  78:Core/Src/stm32f4xx_hal_msp.c **** 
  79:Core/Src/stm32f4xx_hal_msp.c ****   /* USER CODE END MspInit 1 */
  80:Core/Src/stm32f4xx_hal_msp.c **** }
  60              		.loc 1 80 0
  61 002e 02B0     		add	sp, sp, #8
  62              	.LCFI1:
  63              		.cfi_def_cfa_offset 0
  64              		@ sp needed
  65 0030 7047     		bx	lr
  66              	.L4:
  67 0032 00BF     		.align	2
  68              	.L3:
  69 0034 00380240 		.word	1073887232
  70              		.cfi_endproc
  71              	.LFE130:
  73              		.section	.text.HAL_I2C_MspInit,"ax",%progbits
  74              		.align	1
  75              		.global	HAL_I2C_MspInit
  76              		.syntax unified
  77              		.thumb
  78              		.thumb_func
  79              		.fpu fpv4-sp-d16
  81              	HAL_I2C_MspInit:
  82              	.LFB131:
  81:Core/Src/stm32f4xx_hal_msp.c **** 
  82:Core/Src/stm32f4xx_hal_msp.c **** /**
  83:Core/Src/stm32f4xx_hal_msp.c **** * @brief I2C MSP Initialization
  84:Core/Src/stm32f4xx_hal_msp.c **** * This function configures the hardware resources used in this example
  85:Core/Src/stm32f4xx_hal_msp.c **** * @param hi2c: I2C handle pointer
  86:Core/Src/stm32f4xx_hal_msp.c **** * @retval None
  87:Core/Src/stm32f4xx_hal_msp.c **** */
  88:Core/Src/stm32f4xx_hal_msp.c **** void HAL_I2C_MspInit(I2C_HandleTypeDef* hi2c)
  89:Core/Src/stm32f4xx_hal_msp.c **** {
  83              		.loc 1 89 0
  84              		.cfi_startproc
  85              		@ args = 0, pretend = 0, frame = 32
ARM GAS  /tmp/cchM3mgL.s 			page 4


  86              		@ frame_needed = 0, uses_anonymous_args = 0
  87              	.LVL0:
  88 0000 30B5     		push	{r4, r5, lr}
  89              	.LCFI2:
  90              		.cfi_def_cfa_offset 12
  91              		.cfi_offset 4, -12
  92              		.cfi_offset 5, -8
  93              		.cfi_offset 14, -4
  94 0002 89B0     		sub	sp, sp, #36
  95              	.LCFI3:
  96              		.cfi_def_cfa_offset 48
  90:Core/Src/stm32f4xx_hal_msp.c ****   GPIO_InitTypeDef GPIO_InitStruct = {0};
  97              		.loc 1 90 0
  98 0004 0023     		movs	r3, #0
  99 0006 0393     		str	r3, [sp, #12]
 100 0008 0493     		str	r3, [sp, #16]
 101 000a 0593     		str	r3, [sp, #20]
 102 000c 0693     		str	r3, [sp, #24]
 103 000e 0793     		str	r3, [sp, #28]
  91:Core/Src/stm32f4xx_hal_msp.c ****   if(hi2c->Instance==I2C1)
 104              		.loc 1 91 0
 105 0010 0268     		ldr	r2, [r0]
 106 0012 154B     		ldr	r3, .L9
 107 0014 9A42     		cmp	r2, r3
 108 0016 01D0     		beq	.L8
 109              	.LVL1:
 110              	.L5:
  92:Core/Src/stm32f4xx_hal_msp.c ****   {
  93:Core/Src/stm32f4xx_hal_msp.c ****   /* USER CODE BEGIN I2C1_MspInit 0 */
  94:Core/Src/stm32f4xx_hal_msp.c **** 
  95:Core/Src/stm32f4xx_hal_msp.c ****   /* USER CODE END I2C1_MspInit 0 */
  96:Core/Src/stm32f4xx_hal_msp.c ****   
  97:Core/Src/stm32f4xx_hal_msp.c ****     __HAL_RCC_GPIOB_CLK_ENABLE();
  98:Core/Src/stm32f4xx_hal_msp.c ****     /**I2C1 GPIO Configuration    
  99:Core/Src/stm32f4xx_hal_msp.c ****     PB6     ------> I2C1_SCL
 100:Core/Src/stm32f4xx_hal_msp.c ****     PB7     ------> I2C1_SDA 
 101:Core/Src/stm32f4xx_hal_msp.c ****     */
 102:Core/Src/stm32f4xx_hal_msp.c ****     GPIO_InitStruct.Pin = GPIO_PIN_6|GPIO_PIN_7;
 103:Core/Src/stm32f4xx_hal_msp.c ****     GPIO_InitStruct.Mode = GPIO_MODE_AF_OD;
 104:Core/Src/stm32f4xx_hal_msp.c ****     GPIO_InitStruct.Pull = GPIO_PULLUP;
 105:Core/Src/stm32f4xx_hal_msp.c ****     GPIO_InitStruct.Speed = GPIO_SPEED_FREQ_VERY_HIGH;
 106:Core/Src/stm32f4xx_hal_msp.c ****     GPIO_InitStruct.Alternate = GPIO_AF4_I2C1;
 107:Core/Src/stm32f4xx_hal_msp.c ****     HAL_GPIO_Init(GPIOB, &GPIO_InitStruct);
 108:Core/Src/stm32f4xx_hal_msp.c **** 
 109:Core/Src/stm32f4xx_hal_msp.c ****     /* Peripheral clock enable */
 110:Core/Src/stm32f4xx_hal_msp.c ****     __HAL_RCC_I2C1_CLK_ENABLE();
 111:Core/Src/stm32f4xx_hal_msp.c ****   /* USER CODE BEGIN I2C1_MspInit 1 */
 112:Core/Src/stm32f4xx_hal_msp.c **** 
 113:Core/Src/stm32f4xx_hal_msp.c ****   /* USER CODE END I2C1_MspInit 1 */
 114:Core/Src/stm32f4xx_hal_msp.c ****   }
 115:Core/Src/stm32f4xx_hal_msp.c **** 
 116:Core/Src/stm32f4xx_hal_msp.c **** }
 111              		.loc 1 116 0
 112 0018 09B0     		add	sp, sp, #36
 113              	.LCFI4:
 114              		.cfi_remember_state
 115              		.cfi_def_cfa_offset 12
ARM GAS  /tmp/cchM3mgL.s 			page 5


 116              		@ sp needed
 117 001a 30BD     		pop	{r4, r5, pc}
 118              	.LVL2:
 119              	.L8:
 120              	.LCFI5:
 121              		.cfi_restore_state
 122              	.LBB4:
  97:Core/Src/stm32f4xx_hal_msp.c ****     /**I2C1 GPIO Configuration    
 123              		.loc 1 97 0
 124 001c 0025     		movs	r5, #0
 125 001e 0195     		str	r5, [sp, #4]
 126 0020 124C     		ldr	r4, .L9+4
 127 0022 236B     		ldr	r3, [r4, #48]
 128 0024 43F00203 		orr	r3, r3, #2
 129 0028 2363     		str	r3, [r4, #48]
 130 002a 236B     		ldr	r3, [r4, #48]
 131 002c 03F00203 		and	r3, r3, #2
 132 0030 0193     		str	r3, [sp, #4]
 133 0032 019B     		ldr	r3, [sp, #4]
 134              	.LBE4:
 102:Core/Src/stm32f4xx_hal_msp.c ****     GPIO_InitStruct.Mode = GPIO_MODE_AF_OD;
 135              		.loc 1 102 0
 136 0034 C023     		movs	r3, #192
 137 0036 0393     		str	r3, [sp, #12]
 103:Core/Src/stm32f4xx_hal_msp.c ****     GPIO_InitStruct.Pull = GPIO_PULLUP;
 138              		.loc 1 103 0
 139 0038 1223     		movs	r3, #18
 140 003a 0493     		str	r3, [sp, #16]
 104:Core/Src/stm32f4xx_hal_msp.c ****     GPIO_InitStruct.Speed = GPIO_SPEED_FREQ_VERY_HIGH;
 141              		.loc 1 104 0
 142 003c 0123     		movs	r3, #1
 143 003e 0593     		str	r3, [sp, #20]
 105:Core/Src/stm32f4xx_hal_msp.c ****     GPIO_InitStruct.Alternate = GPIO_AF4_I2C1;
 144              		.loc 1 105 0
 145 0040 0323     		movs	r3, #3
 146 0042 0693     		str	r3, [sp, #24]
 106:Core/Src/stm32f4xx_hal_msp.c ****     HAL_GPIO_Init(GPIOB, &GPIO_InitStruct);
 147              		.loc 1 106 0
 148 0044 0423     		movs	r3, #4
 149 0046 0793     		str	r3, [sp, #28]
 107:Core/Src/stm32f4xx_hal_msp.c **** 
 150              		.loc 1 107 0
 151 0048 03A9     		add	r1, sp, #12
 152 004a 0948     		ldr	r0, .L9+8
 153              	.LVL3:
 154 004c FFF7FEFF 		bl	HAL_GPIO_Init
 155              	.LVL4:
 156              	.LBB5:
 110:Core/Src/stm32f4xx_hal_msp.c ****   /* USER CODE BEGIN I2C1_MspInit 1 */
 157              		.loc 1 110 0
 158 0050 0295     		str	r5, [sp, #8]
 159 0052 236C     		ldr	r3, [r4, #64]
 160 0054 43F40013 		orr	r3, r3, #2097152
 161 0058 2364     		str	r3, [r4, #64]
 162 005a 236C     		ldr	r3, [r4, #64]
 163 005c 03F40013 		and	r3, r3, #2097152
 164 0060 0293     		str	r3, [sp, #8]
ARM GAS  /tmp/cchM3mgL.s 			page 6


 165 0062 029B     		ldr	r3, [sp, #8]
 166              	.LBE5:
 167              		.loc 1 116 0
 168 0064 D8E7     		b	.L5
 169              	.L10:
 170 0066 00BF     		.align	2
 171              	.L9:
 172 0068 00540040 		.word	1073763328
 173 006c 00380240 		.word	1073887232
 174 0070 00040240 		.word	1073873920
 175              		.cfi_endproc
 176              	.LFE131:
 178              		.section	.text.HAL_I2C_MspDeInit,"ax",%progbits
 179              		.align	1
 180              		.global	HAL_I2C_MspDeInit
 181              		.syntax unified
 182              		.thumb
 183              		.thumb_func
 184              		.fpu fpv4-sp-d16
 186              	HAL_I2C_MspDeInit:
 187              	.LFB132:
 117:Core/Src/stm32f4xx_hal_msp.c **** 
 118:Core/Src/stm32f4xx_hal_msp.c **** /**
 119:Core/Src/stm32f4xx_hal_msp.c **** * @brief I2C MSP De-Initialization
 120:Core/Src/stm32f4xx_hal_msp.c **** * This function freeze the hardware resources used in this example
 121:Core/Src/stm32f4xx_hal_msp.c **** * @param hi2c: I2C handle pointer
 122:Core/Src/stm32f4xx_hal_msp.c **** * @retval None
 123:Core/Src/stm32f4xx_hal_msp.c **** */
 124:Core/Src/stm32f4xx_hal_msp.c **** void HAL_I2C_MspDeInit(I2C_HandleTypeDef* hi2c)
 125:Core/Src/stm32f4xx_hal_msp.c **** {
 188              		.loc 1 125 0
 189              		.cfi_startproc
 190              		@ args = 0, pretend = 0, frame = 0
 191              		@ frame_needed = 0, uses_anonymous_args = 0
 192              	.LVL5:
 193 0000 08B5     		push	{r3, lr}
 194              	.LCFI6:
 195              		.cfi_def_cfa_offset 8
 196              		.cfi_offset 3, -8
 197              		.cfi_offset 14, -4
 126:Core/Src/stm32f4xx_hal_msp.c ****   if(hi2c->Instance==I2C1)
 198              		.loc 1 126 0
 199 0002 0268     		ldr	r2, [r0]
 200 0004 064B     		ldr	r3, .L15
 201 0006 9A42     		cmp	r2, r3
 202 0008 00D0     		beq	.L14
 203              	.LVL6:
 204              	.L11:
 127:Core/Src/stm32f4xx_hal_msp.c ****   {
 128:Core/Src/stm32f4xx_hal_msp.c ****   /* USER CODE BEGIN I2C1_MspDeInit 0 */
 129:Core/Src/stm32f4xx_hal_msp.c **** 
 130:Core/Src/stm32f4xx_hal_msp.c ****   /* USER CODE END I2C1_MspDeInit 0 */
 131:Core/Src/stm32f4xx_hal_msp.c ****     /* Peripheral clock disable */
 132:Core/Src/stm32f4xx_hal_msp.c ****     __HAL_RCC_I2C1_CLK_DISABLE();
 133:Core/Src/stm32f4xx_hal_msp.c ****   
 134:Core/Src/stm32f4xx_hal_msp.c ****     /**I2C1 GPIO Configuration    
 135:Core/Src/stm32f4xx_hal_msp.c ****     PB6     ------> I2C1_SCL
ARM GAS  /tmp/cchM3mgL.s 			page 7


 136:Core/Src/stm32f4xx_hal_msp.c ****     PB7     ------> I2C1_SDA 
 137:Core/Src/stm32f4xx_hal_msp.c ****     */
 138:Core/Src/stm32f4xx_hal_msp.c ****     HAL_GPIO_DeInit(GPIOB, GPIO_PIN_6|GPIO_PIN_7);
 139:Core/Src/stm32f4xx_hal_msp.c **** 
 140:Core/Src/stm32f4xx_hal_msp.c ****   /* USER CODE BEGIN I2C1_MspDeInit 1 */
 141:Core/Src/stm32f4xx_hal_msp.c **** 
 142:Core/Src/stm32f4xx_hal_msp.c ****   /* USER CODE END I2C1_MspDeInit 1 */
 143:Core/Src/stm32f4xx_hal_msp.c ****   }
 144:Core/Src/stm32f4xx_hal_msp.c **** 
 145:Core/Src/stm32f4xx_hal_msp.c **** }
 205              		.loc 1 145 0
 206 000a 08BD     		pop	{r3, pc}
 207              	.LVL7:
 208              	.L14:
 132:Core/Src/stm32f4xx_hal_msp.c ****   
 209              		.loc 1 132 0
 210 000c 054A     		ldr	r2, .L15+4
 211 000e 136C     		ldr	r3, [r2, #64]
 212 0010 23F40013 		bic	r3, r3, #2097152
 213 0014 1364     		str	r3, [r2, #64]
 138:Core/Src/stm32f4xx_hal_msp.c **** 
 214              		.loc 1 138 0
 215 0016 C021     		movs	r1, #192
 216 0018 0348     		ldr	r0, .L15+8
 217              	.LVL8:
 218 001a FFF7FEFF 		bl	HAL_GPIO_DeInit
 219              	.LVL9:
 220              		.loc 1 145 0
 221 001e F4E7     		b	.L11
 222              	.L16:
 223              		.align	2
 224              	.L15:
 225 0020 00540040 		.word	1073763328
 226 0024 00380240 		.word	1073887232
 227 0028 00040240 		.word	1073873920
 228              		.cfi_endproc
 229              	.LFE132:
 231              		.section	.text.HAL_TIM_PWM_MspInit,"ax",%progbits
 232              		.align	1
 233              		.global	HAL_TIM_PWM_MspInit
 234              		.syntax unified
 235              		.thumb
 236              		.thumb_func
 237              		.fpu fpv4-sp-d16
 239              	HAL_TIM_PWM_MspInit:
 240              	.LFB133:
 146:Core/Src/stm32f4xx_hal_msp.c **** 
 147:Core/Src/stm32f4xx_hal_msp.c **** /**
 148:Core/Src/stm32f4xx_hal_msp.c **** * @brief TIM_PWM MSP Initialization
 149:Core/Src/stm32f4xx_hal_msp.c **** * This function configures the hardware resources used in this example
 150:Core/Src/stm32f4xx_hal_msp.c **** * @param htim_pwm: TIM_PWM handle pointer
 151:Core/Src/stm32f4xx_hal_msp.c **** * @retval None
 152:Core/Src/stm32f4xx_hal_msp.c **** */
 153:Core/Src/stm32f4xx_hal_msp.c **** void HAL_TIM_PWM_MspInit(TIM_HandleTypeDef* htim_pwm)
 154:Core/Src/stm32f4xx_hal_msp.c **** {
 241              		.loc 1 154 0
 242              		.cfi_startproc
ARM GAS  /tmp/cchM3mgL.s 			page 8


 243              		@ args = 0, pretend = 0, frame = 8
 244              		@ frame_needed = 0, uses_anonymous_args = 0
 245              		@ link register save eliminated.
 246              	.LVL10:
 155:Core/Src/stm32f4xx_hal_msp.c ****   if(htim_pwm->Instance==TIM3)
 247              		.loc 1 155 0
 248 0000 0268     		ldr	r2, [r0]
 249 0002 094B     		ldr	r3, .L24
 250 0004 9A42     		cmp	r2, r3
 251 0006 00D0     		beq	.L23
 252 0008 7047     		bx	lr
 253              	.L23:
 154:Core/Src/stm32f4xx_hal_msp.c ****   if(htim_pwm->Instance==TIM3)
 254              		.loc 1 154 0
 255 000a 82B0     		sub	sp, sp, #8
 256              	.LCFI7:
 257              		.cfi_def_cfa_offset 8
 258              	.LBB6:
 156:Core/Src/stm32f4xx_hal_msp.c ****   {
 157:Core/Src/stm32f4xx_hal_msp.c ****   /* USER CODE BEGIN TIM3_MspInit 0 */
 158:Core/Src/stm32f4xx_hal_msp.c **** 
 159:Core/Src/stm32f4xx_hal_msp.c ****   /* USER CODE END TIM3_MspInit 0 */
 160:Core/Src/stm32f4xx_hal_msp.c ****     /* Peripheral clock enable */
 161:Core/Src/stm32f4xx_hal_msp.c ****     __HAL_RCC_TIM3_CLK_ENABLE();
 259              		.loc 1 161 0
 260 000c 0023     		movs	r3, #0
 261 000e 0193     		str	r3, [sp, #4]
 262 0010 064B     		ldr	r3, .L24+4
 263 0012 1A6C     		ldr	r2, [r3, #64]
 264 0014 42F00202 		orr	r2, r2, #2
 265 0018 1A64     		str	r2, [r3, #64]
 266 001a 1B6C     		ldr	r3, [r3, #64]
 267 001c 03F00203 		and	r3, r3, #2
 268 0020 0193     		str	r3, [sp, #4]
 269 0022 019B     		ldr	r3, [sp, #4]
 270              	.LBE6:
 162:Core/Src/stm32f4xx_hal_msp.c ****   /* USER CODE BEGIN TIM3_MspInit 1 */
 163:Core/Src/stm32f4xx_hal_msp.c **** 
 164:Core/Src/stm32f4xx_hal_msp.c ****   /* USER CODE END TIM3_MspInit 1 */
 165:Core/Src/stm32f4xx_hal_msp.c ****   }
 166:Core/Src/stm32f4xx_hal_msp.c **** 
 167:Core/Src/stm32f4xx_hal_msp.c **** }
 271              		.loc 1 167 0
 272 0024 02B0     		add	sp, sp, #8
 273              	.LCFI8:
 274              		.cfi_def_cfa_offset 0
 275              		@ sp needed
 276 0026 7047     		bx	lr
 277              	.L25:
 278              		.align	2
 279              	.L24:
 280 0028 00040040 		.word	1073742848
 281 002c 00380240 		.word	1073887232
 282              		.cfi_endproc
 283              	.LFE133:
 285              		.section	.text.HAL_TIM_MspPostInit,"ax",%progbits
 286              		.align	1
ARM GAS  /tmp/cchM3mgL.s 			page 9


 287              		.global	HAL_TIM_MspPostInit
 288              		.syntax unified
 289              		.thumb
 290              		.thumb_func
 291              		.fpu fpv4-sp-d16
 293              	HAL_TIM_MspPostInit:
 294              	.LFB134:
 168:Core/Src/stm32f4xx_hal_msp.c **** 
 169:Core/Src/stm32f4xx_hal_msp.c **** void HAL_TIM_MspPostInit(TIM_HandleTypeDef* htim)
 170:Core/Src/stm32f4xx_hal_msp.c **** {
 295              		.loc 1 170 0
 296              		.cfi_startproc
 297              		@ args = 0, pretend = 0, frame = 24
 298              		@ frame_needed = 0, uses_anonymous_args = 0
 299              	.LVL11:
 300 0000 00B5     		push	{lr}
 301              	.LCFI9:
 302              		.cfi_def_cfa_offset 4
 303              		.cfi_offset 14, -4
 304 0002 87B0     		sub	sp, sp, #28
 305              	.LCFI10:
 306              		.cfi_def_cfa_offset 32
 171:Core/Src/stm32f4xx_hal_msp.c ****   GPIO_InitTypeDef GPIO_InitStruct = {0};
 307              		.loc 1 171 0
 308 0004 0023     		movs	r3, #0
 309 0006 0193     		str	r3, [sp, #4]
 310 0008 0293     		str	r3, [sp, #8]
 311 000a 0393     		str	r3, [sp, #12]
 312 000c 0493     		str	r3, [sp, #16]
 313 000e 0593     		str	r3, [sp, #20]
 172:Core/Src/stm32f4xx_hal_msp.c ****   if(htim->Instance==TIM3)
 314              		.loc 1 172 0
 315 0010 0268     		ldr	r2, [r0]
 316 0012 0D4B     		ldr	r3, .L30
 317 0014 9A42     		cmp	r2, r3
 318 0016 02D0     		beq	.L29
 319              	.LVL12:
 320              	.L26:
 173:Core/Src/stm32f4xx_hal_msp.c ****   {
 174:Core/Src/stm32f4xx_hal_msp.c ****   /* USER CODE BEGIN TIM3_MspPostInit 0 */
 175:Core/Src/stm32f4xx_hal_msp.c **** 
 176:Core/Src/stm32f4xx_hal_msp.c ****   /* USER CODE END TIM3_MspPostInit 0 */
 177:Core/Src/stm32f4xx_hal_msp.c ****   
 178:Core/Src/stm32f4xx_hal_msp.c ****     __HAL_RCC_GPIOB_CLK_ENABLE();
 179:Core/Src/stm32f4xx_hal_msp.c ****     /**TIM3 GPIO Configuration    
 180:Core/Src/stm32f4xx_hal_msp.c ****     PB1     ------> TIM3_CH4 
 181:Core/Src/stm32f4xx_hal_msp.c ****     */
 182:Core/Src/stm32f4xx_hal_msp.c ****     GPIO_InitStruct.Pin = GPIO_PIN_1;
 183:Core/Src/stm32f4xx_hal_msp.c ****     GPIO_InitStruct.Mode = GPIO_MODE_AF_PP;
 184:Core/Src/stm32f4xx_hal_msp.c ****     GPIO_InitStruct.Pull = GPIO_NOPULL;
 185:Core/Src/stm32f4xx_hal_msp.c ****     GPIO_InitStruct.Speed = GPIO_SPEED_FREQ_LOW;
 186:Core/Src/stm32f4xx_hal_msp.c ****     GPIO_InitStruct.Alternate = GPIO_AF2_TIM3;
 187:Core/Src/stm32f4xx_hal_msp.c ****     HAL_GPIO_Init(GPIOB, &GPIO_InitStruct);
 188:Core/Src/stm32f4xx_hal_msp.c **** 
 189:Core/Src/stm32f4xx_hal_msp.c ****   /* USER CODE BEGIN TIM3_MspPostInit 1 */
 190:Core/Src/stm32f4xx_hal_msp.c **** 
 191:Core/Src/stm32f4xx_hal_msp.c ****   /* USER CODE END TIM3_MspPostInit 1 */
ARM GAS  /tmp/cchM3mgL.s 			page 10


 192:Core/Src/stm32f4xx_hal_msp.c ****   }
 193:Core/Src/stm32f4xx_hal_msp.c **** 
 194:Core/Src/stm32f4xx_hal_msp.c **** }
 321              		.loc 1 194 0
 322 0018 07B0     		add	sp, sp, #28
 323              	.LCFI11:
 324              		.cfi_remember_state
 325              		.cfi_def_cfa_offset 4
 326              		@ sp needed
 327 001a 5DF804FB 		ldr	pc, [sp], #4
 328              	.LVL13:
 329              	.L29:
 330              	.LCFI12:
 331              		.cfi_restore_state
 332              	.LBB7:
 178:Core/Src/stm32f4xx_hal_msp.c ****     /**TIM3 GPIO Configuration    
 333              		.loc 1 178 0
 334 001e 0023     		movs	r3, #0
 335 0020 0093     		str	r3, [sp]
 336 0022 0A4B     		ldr	r3, .L30+4
 337 0024 1A6B     		ldr	r2, [r3, #48]
 338 0026 42F00202 		orr	r2, r2, #2
 339 002a 1A63     		str	r2, [r3, #48]
 340 002c 1B6B     		ldr	r3, [r3, #48]
 341 002e 03F00203 		and	r3, r3, #2
 342 0032 0093     		str	r3, [sp]
 343 0034 009B     		ldr	r3, [sp]
 344              	.LBE7:
 182:Core/Src/stm32f4xx_hal_msp.c ****     GPIO_InitStruct.Mode = GPIO_MODE_AF_PP;
 345              		.loc 1 182 0
 346 0036 0223     		movs	r3, #2
 347 0038 0193     		str	r3, [sp, #4]
 183:Core/Src/stm32f4xx_hal_msp.c ****     GPIO_InitStruct.Pull = GPIO_NOPULL;
 348              		.loc 1 183 0
 349 003a 0293     		str	r3, [sp, #8]
 186:Core/Src/stm32f4xx_hal_msp.c ****     HAL_GPIO_Init(GPIOB, &GPIO_InitStruct);
 350              		.loc 1 186 0
 351 003c 0593     		str	r3, [sp, #20]
 187:Core/Src/stm32f4xx_hal_msp.c **** 
 352              		.loc 1 187 0
 353 003e 01A9     		add	r1, sp, #4
 354 0040 0348     		ldr	r0, .L30+8
 355              	.LVL14:
 356 0042 FFF7FEFF 		bl	HAL_GPIO_Init
 357              	.LVL15:
 358              		.loc 1 194 0
 359 0046 E7E7     		b	.L26
 360              	.L31:
 361              		.align	2
 362              	.L30:
 363 0048 00040040 		.word	1073742848
 364 004c 00380240 		.word	1073887232
 365 0050 00040240 		.word	1073873920
 366              		.cfi_endproc
 367              	.LFE134:
 369              		.section	.text.HAL_TIM_PWM_MspDeInit,"ax",%progbits
 370              		.align	1
ARM GAS  /tmp/cchM3mgL.s 			page 11


 371              		.global	HAL_TIM_PWM_MspDeInit
 372              		.syntax unified
 373              		.thumb
 374              		.thumb_func
 375              		.fpu fpv4-sp-d16
 377              	HAL_TIM_PWM_MspDeInit:
 378              	.LFB135:
 195:Core/Src/stm32f4xx_hal_msp.c **** /**
 196:Core/Src/stm32f4xx_hal_msp.c **** * @brief TIM_PWM MSP De-Initialization
 197:Core/Src/stm32f4xx_hal_msp.c **** * This function freeze the hardware resources used in this example
 198:Core/Src/stm32f4xx_hal_msp.c **** * @param htim_pwm: TIM_PWM handle pointer
 199:Core/Src/stm32f4xx_hal_msp.c **** * @retval None
 200:Core/Src/stm32f4xx_hal_msp.c **** */
 201:Core/Src/stm32f4xx_hal_msp.c **** void HAL_TIM_PWM_MspDeInit(TIM_HandleTypeDef* htim_pwm)
 202:Core/Src/stm32f4xx_hal_msp.c **** {
 379              		.loc 1 202 0
 380              		.cfi_startproc
 381              		@ args = 0, pretend = 0, frame = 0
 382              		@ frame_needed = 0, uses_anonymous_args = 0
 383              		@ link register save eliminated.
 384              	.LVL16:
 203:Core/Src/stm32f4xx_hal_msp.c ****   if(htim_pwm->Instance==TIM3)
 385              		.loc 1 203 0
 386 0000 0268     		ldr	r2, [r0]
 387 0002 054B     		ldr	r3, .L35
 388 0004 9A42     		cmp	r2, r3
 389 0006 00D0     		beq	.L34
 390              	.L32:
 204:Core/Src/stm32f4xx_hal_msp.c ****   {
 205:Core/Src/stm32f4xx_hal_msp.c ****   /* USER CODE BEGIN TIM3_MspDeInit 0 */
 206:Core/Src/stm32f4xx_hal_msp.c **** 
 207:Core/Src/stm32f4xx_hal_msp.c ****   /* USER CODE END TIM3_MspDeInit 0 */
 208:Core/Src/stm32f4xx_hal_msp.c ****     /* Peripheral clock disable */
 209:Core/Src/stm32f4xx_hal_msp.c ****     __HAL_RCC_TIM3_CLK_DISABLE();
 210:Core/Src/stm32f4xx_hal_msp.c ****   /* USER CODE BEGIN TIM3_MspDeInit 1 */
 211:Core/Src/stm32f4xx_hal_msp.c **** 
 212:Core/Src/stm32f4xx_hal_msp.c ****   /* USER CODE END TIM3_MspDeInit 1 */
 213:Core/Src/stm32f4xx_hal_msp.c ****   }
 214:Core/Src/stm32f4xx_hal_msp.c **** 
 215:Core/Src/stm32f4xx_hal_msp.c **** }
 391              		.loc 1 215 0
 392 0008 7047     		bx	lr
 393              	.L34:
 209:Core/Src/stm32f4xx_hal_msp.c ****   /* USER CODE BEGIN TIM3_MspDeInit 1 */
 394              		.loc 1 209 0
 395 000a 044A     		ldr	r2, .L35+4
 396 000c 136C     		ldr	r3, [r2, #64]
 397 000e 23F00203 		bic	r3, r3, #2
 398 0012 1364     		str	r3, [r2, #64]
 399              		.loc 1 215 0
 400 0014 F8E7     		b	.L32
 401              	.L36:
 402 0016 00BF     		.align	2
 403              	.L35:
 404 0018 00040040 		.word	1073742848
 405 001c 00380240 		.word	1073887232
 406              		.cfi_endproc
ARM GAS  /tmp/cchM3mgL.s 			page 12


 407              	.LFE135:
 409              		.text
 410              	.Letext0:
 411              		.file 2 "/opt/gcc-arm-none-eabi-7-2018-q2-update/arm-none-eabi/include/machine/_default_types.h"
 412              		.file 3 "/opt/gcc-arm-none-eabi-7-2018-q2-update/arm-none-eabi/include/sys/_stdint.h"
 413              		.file 4 "Drivers/CMSIS/Include/core_cm4.h"
 414              		.file 5 "Drivers/CMSIS/Device/ST/STM32F4xx/Include/system_stm32f4xx.h"
 415              		.file 6 "Drivers/CMSIS/Device/ST/STM32F4xx/Include/stm32f405xx.h"
 416              		.file 7 "Drivers/STM32F4xx_HAL_Driver/Inc/stm32f4xx_hal_def.h"
 417              		.file 8 "Drivers/STM32F4xx_HAL_Driver/Inc/stm32f4xx_hal_gpio.h"
 418              		.file 9 "Drivers/STM32F4xx_HAL_Driver/Inc/stm32f4xx_hal_dma.h"
 419              		.file 10 "Drivers/STM32F4xx_HAL_Driver/Inc/stm32f4xx_hal_i2c.h"
 420              		.file 11 "Drivers/STM32F4xx_HAL_Driver/Inc/stm32f4xx_hal_tim.h"
ARM GAS  /tmp/cchM3mgL.s 			page 13


DEFINED SYMBOLS
                            *ABS*:0000000000000000 stm32f4xx_hal_msp.c
     /tmp/cchM3mgL.s:18     .text.HAL_MspInit:0000000000000000 $t
     /tmp/cchM3mgL.s:25     .text.HAL_MspInit:0000000000000000 HAL_MspInit
     /tmp/cchM3mgL.s:69     .text.HAL_MspInit:0000000000000034 $d
     /tmp/cchM3mgL.s:74     .text.HAL_I2C_MspInit:0000000000000000 $t
     /tmp/cchM3mgL.s:81     .text.HAL_I2C_MspInit:0000000000000000 HAL_I2C_MspInit
     /tmp/cchM3mgL.s:172    .text.HAL_I2C_MspInit:0000000000000068 $d
     /tmp/cchM3mgL.s:179    .text.HAL_I2C_MspDeInit:0000000000000000 $t
     /tmp/cchM3mgL.s:186    .text.HAL_I2C_MspDeInit:0000000000000000 HAL_I2C_MspDeInit
     /tmp/cchM3mgL.s:225    .text.HAL_I2C_MspDeInit:0000000000000020 $d
     /tmp/cchM3mgL.s:232    .text.HAL_TIM_PWM_MspInit:0000000000000000 $t
     /tmp/cchM3mgL.s:239    .text.HAL_TIM_PWM_MspInit:0000000000000000 HAL_TIM_PWM_MspInit
     /tmp/cchM3mgL.s:280    .text.HAL_TIM_PWM_MspInit:0000000000000028 $d
     /tmp/cchM3mgL.s:286    .text.HAL_TIM_MspPostInit:0000000000000000 $t
     /tmp/cchM3mgL.s:293    .text.HAL_TIM_MspPostInit:0000000000000000 HAL_TIM_MspPostInit
     /tmp/cchM3mgL.s:363    .text.HAL_TIM_MspPostInit:0000000000000048 $d
     /tmp/cchM3mgL.s:370    .text.HAL_TIM_PWM_MspDeInit:0000000000000000 $t
     /tmp/cchM3mgL.s:377    .text.HAL_TIM_PWM_MspDeInit:0000000000000000 HAL_TIM_PWM_MspDeInit
     /tmp/cchM3mgL.s:404    .text.HAL_TIM_PWM_MspDeInit:0000000000000018 $d

UNDEFINED SYMBOLS
HAL_GPIO_Init
HAL_GPIO_DeInit
